:1000000038200020DD040000D9040000D9040000DD
:1000100000000000000000000000000000000000E0
:10002000000000000000000000000000D9040000F3
:100030000000000000000000D9040000710500006D
:10004000D9040000D9040000D9040000D90400003C
:10005000D9040000D9040000D9040000D90400002C
:10006000D9040000D9040000D9040000D90400001C
:10007000D9040000D9040000D9040000D90400000C
:10008000D9040000D9040000D9040000D9040000FC
:10009000D9040000D9040000D9040000D9040000EC
:1000A000D9040000D9040000D9040000D9040000DC
:1000B000D9040000D9040000D904000010B5064C92
:1000C0002378002B07D1054B002B02D0044800E019
:1000D00000BF0123237010BD0400002000000000B9
:1000E0007C070000084B10B5002B03D007490848D7
:1000F00000E000BF07480368002B00D110BD064B8D
:10010000002BFBD09847F9E7000000000800002012
:100110007C0700007C070000000000000C4B1B68FF
:10012000002B10D1EFF31083002B09D172B6BFF36F
:100130005F8F0022074B1A700132074B1A7002E0E2
:100140000022054B1A70024A13680133136070478E
:10015000200000200000002024000020084B1A6826
:10016000013A1A601B68002B09D1064B1B78002B43
:1001700005D00122044B1A70BFF35F8F62B670473F
:1001800020000020240000200000002070B582B074
:1001900001AC012565700026A670257021000F2096
:1001A00000F00EF8802212028223DB059A6126708D
:1001B000657021001C2000F003F802B070BDC0463D
:1001C00000B583B001AB80221A700A785A704A7861
:1001D0009A708A78DA70190000F05CF903B000BDFB
:1001E00010B5072803D880000F4B1B589F460020EE
:1001F00018E00E4B586815E00D4B597D0907090FA3
:1002000001310C4800F0E8F90CE0084B986809E06F
:10021000074B1B7F00209B0704D5044B186801E0A7
:100220008020000210BDC0463C07000028000020CE
:1002300000100040006CDC0200B585B00322104BBA
:100240009A60104A53681E218B4353600E4A117DF9
:1002500080230B43137500F01BF801230B4A137125
:1002600001A94B6000234B7006220A700B724B727F
:10027000002000F01FF8002000F06EF805B000BD6F
:1002800000180040004000410010004000080040FD
:10029000064A516980230B4353610122044B1A70B3
:1002A00019000B781342FCD17047C046000800408B
:1002B000001C004070B505000C784B78002B02D074
:1002C0008023DB001C434B7A002B02D080231B01D0
:1002D0001C434A68012A17D9531E1A420FD1022A19
:1002E00006D90223002001305B009A42FBD800E0CF
:1002F000002080235B011C430004044304E012043B
:1003000080239B001A4314430B7A002B02D08023D6
:100310009B011C430426AE400D490E4A4B68134016
:100320001E42FBD1FFF7FAFEAD00094B9C46654427
:10033000286A80235B001840204328626146054AF2
:100340004B6813401E42FBD1FFF708FF70BDC0464B
:10035000001C0040FC07000010B50400042282408D
:1003600009480A4943680B401A42FBD1FFF7D6FE01
:10037000A400054B9C466444236A80225200134328
:100380002362FFF7EBFE10BD001C0040FC070000DD
:10039000F8B50400042282401248134943680B4018
:1003A0001A42FBD1FFF7BAFE0E4F0834A400E05901
:1003B0004007400FFFF714FF0600E559ED04ED0F6D
:1003C000E459240CFFF7CAFE002D07D1012C07D9F0
:1003D0002100300000F000F9060001E00134E640A1
:1003E0003000F8BD001C0040FC07000030B5D37899
:1003F000002B1ED11378802B04D01B0680246402AE
:10040000234300E0002354780225AC430AD19478BA
:10041000002C03D18024A402234302E0C024E40280
:10042000234341605478013C012C12D8184C2340DE
:100430000FE041600B041B0CA024E40523438362FE
:100440000B0CD024240623438362D378002B18D0CE
:100450001CE00C04240CA025ED052C431C438462F5
:100460000C0CD0252D062C431C438462D478002C20
:100470000CD15B0305D59378012B01D1816100E09C
:1004800041615378013B012B00D8816030BDC046EB
:10049000FFFFFBFF10B503000A00C109002000297F
:1004A00005D15809C0018221C9058C4660441F212D
:1004B0000B401E399940FFF799FF10BD7047C046A9
:1004C00010B5FFF7B9FEFFF761FEFFF7F7FFFFF783
:1004D000F5FFFFF7F3FF10BDFEE7C04610B51B4B5D
:1004E0001B4A9A4203D01B4B184A9A4204D31A4B18
:1004F0001A4A9A4210D31EE0194A164B03339B1A2C
:100500009B0801339B000022104811498C588450ED
:1005100004329A42FAD1EAE7124A0F4B03339B1A8C
:100520009B0801339B0000220C4800211418216015
:1005300004329A42FAD10C4AFF210C4B8B43936050
:1005400000F0D6F800F01AF8FEE7C04600000020E0
:100550007C0700000400002034000020040000207C
:10056000040000200800002000ED00E00000000072
:10057000802212028223DB05DA61704700B583B066
:10058000FFF79EFF0020FFF703FF01380F4B984253
:100590000DD80F4A50600F490B6A1B021B0AC0207E
:1005A000000603430B62002393600733136001A925
:1005B00001234B7000228A700B700F20FFF700FEA2
:1005C000802212028223DB059A61FEE7FFFFFF0013
:1005D00010E000E000ED00E0002243088B4274D3FD
:1005E00003098B425FD3030A8B4244D3030B8B4234
:1005F00028D3030C8B420DD3FF22090212BA030C3D
:100600008B4202D31212090265D0030B8B4219D31D
:1006100000E0090AC30B8B4201D3CB03C01A52413D
:10062000830B8B4201D38B03C01A5241430B8B4285
:1006300001D34B03C01A5241030B8B4201D30B036E
:10064000C01A5241C30A8B4201D3CB02C01A524195
:10065000830A8B4201D38B02C01A5241430A8B4258
:1006600001D34B02C01A5241030A8B4201D30B0241
:10067000C01A5241CDD2C3098B4201D3CB01C01A5B
:10068000524183098B4201D38B01C01A5241430965
:100690008B4201D34B01C01A524103098B4201D353
:1006A0000B01C01A5241C3088B4201D3CB00C01AC0
:1006B000524183088B4201D38B00C01A5241430838
:1006C0008B4201D34B00C01A5241411A00D201465D
:1006D000524110467047FFE701B5002000F006F8D0
:1006E00002BDC0460029F7D076E770477047C04684
:1006F0000E4B70B500251E000D4CE41AA410A54247
:1007000004D0AB00F35898470135F8E700F026F81D
:10071000084B00251E00084CE41AA410A54204D082
:10072000AB00F35898470135F8E770BD6807000043
:1007300068070000680700006C070000F201000075
:10074000EE010000EE010000200200002002000087
:100750000A020000F801000010020000F8B5C046CF
:10076000F8BC08BC9E467047E5000000F8B5C046DE
:0C077000F8BC08BC9E467047BD000000AD
:04077C000100000078
:04000003000004DD18
:00000001FF
